:100000000C9467000C948F000C948F000C948F005C
:100010000C948F000C948F000C948F000C948F0024
:100020000C948F000C948F000C948F000C948F0014
:100030000C948F000C948F000C948F000C948F0004
:100040000C942A030C948F000C949A030C94740360
:100050000C948F000C948F000C948F000C948F00E4
:100060000C948F000C948F0005A84CCDB2D44EB9DF
:100070003836A9020C50B9918688083CA6AAAA2A4B
:10008000BE000000803F0000000023002600290081
:1000900000000000250028002B00000000002400C4
:1000A00027002A00040404040404040402020202D7
:1000B000020203030303030301020408102040802B
:1000C000010204081020010204081020E005112498
:1000D0001FBECFEFD8E0DEBFCDBF11E0A0E0B1E0A2
:1000E000EAE0F2E102C005900D92A234B107D9F71F
:1000F00022E0A2E4B1E001C01D92A830B207E1F70E
:1001000010E0C7E6D0E004C02197FE010E94F80885
:10011000C636D107C9F70E9411040C9403090C9448
:100120000000CF93DF9390E0FC01E854FF4F24914F
:10013000FC01EC55FF4F84918823C1F090E0880FBB
:10014000991FFC01E656FF4FC591D491FC01E05781
:10015000FF4FA591B4919FB7F8948881E22FE09565
:100160008E2388838C91E823EC939FBFDF91CF91FE
:1001700008958E3008F08E508770806480937C00E4
:1001800080917A00806480937A0080917A0086FD65
:10019000FCCF809178002091790090E0922B089517
:1001A0003FB7F8948091670190916801A09169012F
:1001B000B0916A0126B5A89B05C02F3F19F00196A2
:1001C000A11DB11D3FBFBA2FA92F982F8827820FDD
:1001D000911DA11DB11DBC01CD0142E0660F771F2D
:1001E000881F991F4A95D1F70895CF92DF92EF9219
:1001F000FF920F931F93CF93DF936C017A018B01D2
:10020000C0E0D0E0CE15DF0581F0D8016D918D0101
:10021000D601ED91FC910190F081E02DC601099588
:10022000892B11F02196EECF7E01C701DF91CF918E
:100230001F910F91FF90EF90DF90CF900895089558
:1002400080E090E00895FC01538D448D252F30E02F
:10025000842F90E0821B930B541710F0CF960895D3
:1002600001970895FC01918D828D981761F0828D20
:10027000DF01A80FB11D5D968C91928D9F5F9F73DA
:10028000928F90E008958FEF9FEF0895FC01918D7C
:10029000828D981731F0828DE80FF11D858D90E0E9
:1002A00008958FEF9FEF0895FC01918D228D892F86
:1002B00090E0805C9F4F821B91098F73992708956E
:1002C0008BE691E00E94540121E0892B09F420E0A3
:1002D000822F0895FC01848DDF01A80FB11DA35A60
:1002E000BF4F2C91848D90E001968F739927848F56
:1002F000A689B7892C93A089B1898C918370806479
:100300008C93938D848D981306C00288F389E02D19
:1003100080818F7D80830895EF92FF920F931F93CA
:10032000CF93DF93EC0181E0888F9B8D8C8D9813A8
:1003300005C0E889F989808185FD26C0F62E0B8DE0
:1003400010E00F5F1F4F0F731127E02E8C8DE81206
:100350000CC00FB607FCFACFE889F989808185FFC8
:10036000F5CFCE010E946A01F1CF8B8DFE01E80F1F
:10037000F11DE35AFF4FF0829FB7F8940B8FEA8983
:10038000FB89808180620AC09FB7F894EE89FF895B
:100390006083E889F98980818370806480839FBF4E
:1003A00081E090E0DF91CF911F910F91FF90EF904E
:1003B0000895CF93DF93EC01888D8823C9F0EA89F3
:1003C000FB89808185FD05C0A889B9898C9186FD4E
:1003D0000FC00FB607FCF5CF808185FFF2CFA8894B
:1003E000B9898C9185FFEDCFCE010E946A01E7CFDC
:1003F000DF91CF91089580E090E0892B29F00E9451
:10040000600181110C9400000895009769F0FC01CF
:1004100001900020E9F73197AF01481B590BBC014F
:100420008BE691E00C94F50080E090E008952F9227
:100430003F924F925F926F927F928F929F92AF9274
:10044000BF92CF92DF92EF92FF920F931F93CF93C1
:10045000DF93CDB7DEB7A4970FB6F894DEBF0FBE1B
:10046000CDBF4B015C019B01AC010E948808882331
:1004700019F082E191E01AC075016401E894F7F87F
:100480002FEF3FEF4FE75FE7C701B6010E948808F3
:10049000811110C02FEF3FEF4FE75FE7C701B601B3
:1004A0000E947A06181634F486E191E00E94050253
:1004B0008C01AFC02FEF3FEF4FE75FE4C501B40100
:1004C0000E94160818161CF48AE191E0EFCF2FEF76
:1004D0003FEF4FE75FECC501B4010E947A0687FD4C
:1004E000F3CF20E030E0A901C501B4010E947A06F3
:1004F00087FF0BC06DE28BE691E00E948C016C01DE
:10050000B7FAB094B7F8B09402C0C12CD12C2AE04D
:1005100037ED43EA5BE3C501B4010E940E064B01CF
:100520005C010E94F6062B013C010E9425079B01FD
:10053000AC01C501B4010E940D064B015C0119A27A
:100540007E0181E2E80EF11CEAA2FBA2C301B20126
:100550002AE030E040E050E00E94D60829013A014C
:10056000605DF70162937F01232B242B252B71F70C
:10057000CF010E9405028C016EE28BE691E00E94A1
:100580008C01800F911F8C010C0D1D1D83E0F82E36
:100590009AE0292E312C412C512CFA94FF20C9F1DC
:1005A00020E030E040E251E4C501B4010E941B08A4
:1005B0004B015C010E94F6069B0140E050E019A24D
:1005C0006AA07BA06CA3C32ED42EE52ECA01B9016C
:1005D000A20191010E94D608605DF30162933F0180
:1005E000211531054105510589F7CF010E9405020A
:1005F000080F191F6CA17C2D8D2D9E2D0E942507A3
:100600009B01AC01C501B4010E940D064B015C01C8
:10061000C4CF8EE191E00E940502800F911FA49645
:100620000FB6F894DEBF0FBECDBFDF91CF911F9103
:100630000F91FF90EF90DF90CF90BF90AF909F9081
:100640008F907F906F905F904F903F902F90089584
:100650000E94FE081F920F920FB60F9211242F9343
:100660003F938F939F93AF93BF938091630190913A
:100670006401A0916501B09166013091620123E0AF
:10068000230F2D3720F40196A11DB11D05C026E8CA
:10069000230F0296A11DB11D209362018093630177
:1006A00090936401A0936501B09366018091670106
:1006B00090916801A0916901B0916A010196A11D14
:1006C000B11D8093670190936801A0936901B09375
:1006D0006A01BF91AF919F918F913F912F910F90A0
:1006E0000FBE0F901F9018951F920F920FB60F928A
:1006F00011242F933F934F935F936F937F938F9327
:100700009F93AF93BF93EF93FF938BE691E00E948B
:100710006A01FF91EF91BF91AF919F918F917F916E
:100720006F915F914F913F912F910F900FBE0F905E
:100730001F9018951F920F920FB60F9211242F93AE
:100740008F939F93EF93FF93E0917B01F0917C0156
:100750008081E0918101F091820182FD12C090813F
:10076000809184018F5F8F7320918501821751F0F2
:10077000E0918401F0E0E559FE4F958F809384016C
:1007800001C08081FF91EF919F918F912F910F90E8
:100790000FBE0F901F901895CF92DF92EF92FF92AD
:1007A0000F931F93E82FF92F05C00150110921095C
:1007B000310961F1908196239417B9F305C0015076
:1007C00011092109310911F1908196239413F7CF72
:1007D000C12CD12CE12CF12C0AC08FEFC81AD80AF9
:1007E000E80AF80A0C151D052E053F0579F08081F1
:1007F0008623841791F36C2D7D2D8E2D9F2D1F91B7
:100800000F91FF90EF90DF90CF90089560E070E03F
:1008100080E090E01F910F91FF90EF90DF90CF90DC
:100820000895789484B5826084BD84B5816084BD68
:1008300085B5826085BD85B5816085BD80916E007E
:10084000816080936E0010928100809181008260AF
:1008500080938100809181008160809381008091EC
:1008600080008160809380008091B10084608093DB
:10087000B1008091B00081608093B00080917A00D7
:10088000846080937A0080917A00826080937A00FD
:1008900080917A00816080937A0080917A008068EC
:1008A00080937A001092C100E0917B01F0917C016D
:1008B00082E08083E0917701F09178011082E091ED
:1008C0007901F0917A018FEC808310928301E0919D
:1008D0007F01F091800186E08083E0917D01F091BD
:1008E0007E01808180618083E0917D01F0917E01B5
:1008F000808188608083E0917D01F0917E0180811C
:1009000080688083E0917D01F0917E0180818F7D00
:1009100080838AE00E94910089E00E9491000E94F9
:10092000D00060934E0170934F01809350019093DB
:100930005101C1ECD0E09DEAE92E90E0F92EFE01D4
:100940006491F7018491E82FF0E0EE0FFF1FEA5762
:10095000FF4F8591949100E412E42FE030E0462FA0
:100960000E94CC03611571058105910549F0DC01F8
:10097000CB010196A11DB11DBC01CD019F7003C02B
:1009800060E070E0CB010E94250720E030E44CE9F4
:1009900056E40E94840626E53EE049EC50E40E94BD
:1009A0001B080E947F064B015C0160935E017093FF
:1009B0005F0180936001909361018EE00E94B90015
:1009C000BC01990F880B990B0E9427072B013C0152
:1009D00060935A0170935B0180935C0190935D0179
:1009E0008FE00E94B900BC01990F880B990B0E94FF
:1009F0002707A30192010E941B082AEC34E541EC71
:100A00005DE30E941B0820E030E04AE754E40E94C6
:100A100084069B01AC01609356017093570180934B
:100A2000580190935901C501B4010E941B084B0164
:100A30005C01609352017093530180935401909331
:100A400055010E94D00040904E0150904F0160909F
:100A500050017090510164197509860997090E9427
:100A6000250720E034E244E759E40E948406A5010A
:100A700094010E941B0820914A0130914B01409142
:100A80004C0150914D010E940E064B015C01609398
:100A90004A0170934B0180934C0190934D010E9449
:100AA000D00060934E0170934F018093500190935A
:100AB000510120E030E041E655E4C501B4010E9457
:100AC00084069B01AC0160914601709147018091C1
:100AD0004801909149010E940E066093460170936F
:100AE000470180934801909349012FB7F894809172
:100AF000630190916401A0916501B09166012FBFDF
:100B0000409142015091430160914401709145012F
:100B1000841B950BA60BB70B893E9340A105B1052D
:100B200008F44BC081E291E00E94050260915E01F1
:100B300070915F0180916001909161010E941702A4
:100B400080E391E00E940502609156017091570187
:100B500080915801909159010E94170286E391E01B
:100B60000E940502609152017091530180915401DD
:100B7000909155010E9417028BE391E00E940502BB
:100B8000609146017091470180914801909149011F
:100B90000E9417022FB7F89480916301909164012D
:100BA000A0916501B09166012FBF8093420190939F
:100BB0004301A0934401B09345010E94FB01BFCEC5
:100BC000EBE6F1E01382128288EE93E0A0E0B0E061
:100BD00084839583A683B78384E091E091838083A7
:100BE00085EC90E09587848784EC90E097878687F2
:100BF00080EC90E0918B808B81EC90E0938B828BEA
:100C000082EC90E0958B848B86EC90E0978B868BC2
:100C1000118E128E138E148E08955058BB27AA275A
:100C20000E9425060C94C8070E948F0738F00E9486
:100C3000960720F039F49F3F19F426F40C948C07A2
:100C40000EF4E095E7FB0C948607E92F0E94ED0770
:100C500058F3BA17620773078407950720F079F4F1
:100C6000A6F50C940F080EF4E0950B2EBA2FA02DCC
:100C70000B01B90190010C01CA01A0011124FF2749
:100C8000591B99F0593F50F4503E68F11A16F04044
:100C9000A22F232F342F4427585FF3CF4695379543
:100CA0002795A795F0405395C9F77EF41F16BA0B08
:100CB000620B730B840BBAF09150A1F0FF0FBB1FB6
:100CC000661F771F881FC2F70EC0BA0F621F731FFF
:100CD000841F48F4879577956795B795F7959E3F5C
:100CE00008F0B0CF9395880F08F09927EE0F9795ED
:100CF000879508950E94620708F481E008950E9494
:100D00009F07E3950C94D9070E9498060C94C80796
:100D10000E94960758F00E948F0740F029F45F3F29
:100D200029F00C94860751110C9410080C948C0730
:100D30000E94ED0768F39923B1F3552391F3951BB6
:100D4000550BBB27AA2762177307840738F09F5FEC
:100D50005F4F220F331F441FAA1FA9F335D00E2E59
:100D60003AF0E0E832D091505040E695001CCAF7C6
:100D70002BD0FE2F29D0660F771F881FBB1F261789
:100D800037074807AB07B0E809F0BB0B802DBF0160
:100D9000FF2793585F4F3AF09E3F510578F00C942F
:100DA00086070C9410085F3FE4F3983ED4F38695D1
:100DB00077956795B795F7959F5FC9F7880F911D50
:100DC0009695879597F90895E1E0660F771F881F3C
:100DD000BB1F621773078407BA0720F0621B730BEF
:100DE000840BBA0BEE1F88F7E09508950E94F50773
:100DF00088F09F5798F0B92F9927B751B0F0E1F0DC
:100E0000660F771F881F991F1AF0BA95C9F714C08B
:100E1000B13091F00E940F08B1E008950C940F08D2
:100E2000672F782F8827B85F39F0B93FCCF38695C4
:100E300077956795B395D9F73EF490958095709521
:100E400061957F4F8F4F9F4F0895E89409C097FB9E
:100E50003EF490958095709561957F4F8F4F9F4F91
:100E60009923A9F0F92F96E9BB279395F6958795D5
:100E700077956795B795F111F8CFFAF4BB0F11F498
:100E800060FF1BC06F5F7F4F8F4F9F4F16C088233F
:100E900011F096E911C0772321F09EE8872F762F75
:100EA00005C0662371F096E8862F70E060E02AF0B6
:100EB0009A95660F771F881FDAF7880F96958795A2
:100EC00097F90895990F0008550FAA0BE0E8FEEF77
:100ED00016161706E807F907C0F012161306E407FE
:100EE000F50798F0621B730B840B950B39F40A26F7
:100EF00061F0232B242B252B21F408950A2609F4D5
:100F0000A140A6958FEF811D811D089597F99F67D8
:100F100080E870E060E008959FEF80EC0895002481
:100F20000A941616170618060906089500240A944E
:100F3000121613061406050608950C948C070E94D9
:100F4000F507D8F3E894E0E0BB279F57F0F02AEDCF
:100F50003FE049EC06C0EE0FBB0F661F771F881FEE
:100F600028F0B23A62077307840728F0B25A620B7E
:100F7000730B840BE3959A9572F7803830F49A9549
:100F8000BB0F661F771F881FD2F790480C948F08FD
:100F9000092E0394000C11F4882352F0BB0F40F487
:100FA000BF2B11F460FF04C06F5F7F4F8F4F9F4FC7
:100FB0000895EF93E0FF07C0A2EA2AED3FE049EC75
:100FC0005FEB0E9425060E94C8070F90039401FC66
:100FD0009058E8E6F0E00C949B0857FD9058440FB9
:100FE000551F59F05F3F71F04795880F97FB991F88
:100FF00061F09F3F79F08795089512161306140645
:10100000551FF2CF4695F1DF08C0161617061806D1
:10101000991FF1CF86957105610508940895E894AC
:10102000BB2766277727CB0197F908950E946207AF
:1010300008F48FEF08950E942E080C94C8070E94B0
:101040008F0738F00E94960720F0952311F00C943A
:1010500086070C948C0711240C9410080E94ED074D
:1010600070F3959FC1F3950F50E0551F629FF001FB
:10107000729FBB27F00DB11D639FAA27F00DB11D14
:10108000AA1F649F6627B00DA11D661F829F22279D
:10109000B00DA11D621F739FB00DA11D621F839F24
:1010A000A00D611D221F749F3327A00D611D231FFA
:1010B000849F600D211D822F762F6A2F11249F5748
:1010C00050409AF0F1F088234AF0EE0FFF1FBB1F4B
:1010D000661F771F881F91505040A9F79E3F51050A
:1010E00080F00C9486070C9410085F3FE4F3983E60
:1010F000D4F3869577956795B795F795E7959F5FB4
:10110000C1F7FE2B880F911D9695879597F9089545
:101110000E946207880B990B08959F3F31F0915010
:1011200020F4879577956795B795880F911D9695CB
:10113000879597F908959F938F937F936F93FF936C
:10114000EF939B01AC010E941B08EF91FF910E945D
:10115000AF082F913F914F915F910C941B08DF9343
:10116000CF931F930F93FF92EF92DF927B018C013D
:10117000689406C0DA2EEF010E942E08FE01E89462
:10118000A5912591359145915591A6F3EF010E94C6
:101190002506FE019701A801DA9469F7DF90EF9028
:1011A000FF900F911F91CF91DF910895A1E21A2E28
:1011B000AA1BBB1BFD010DC0AA1FBB1FEE1FFF1FFB
:1011C000A217B307E407F50720F0A21BB30BE40B4B
:1011D000F50B661F771F881F991F1A9469F7609592
:1011E0007095809590959B01AC01BD01CF0108954C
:1011F000EE0FFF1F0590F491E02D099481E090E03F
:0A120000F8940C940309F894FFCF52
:10120A00000000008C01F5002301D90154013201CC
:10121A0046016E616E00696E66006F7666000D0AA1
:10122A0000506F77657220666163746F723A2000AE
:10123A006B56413A20006B57203A006B5768203AA8
:02124A000000A2
:107E0000112484B714BE81FFF0D085E080938100F7
:107E100082E08093C00088E18093C10086E0809377
:107E2000C20080E18093C4008EE0C9D0259A86E02C
:107E300020E33CEF91E0309385002093840096BBD3
:107E4000B09BFECF1D9AA8958150A9F7CC24DD24C4
:107E500088248394B5E0AB2EA1E19A2EF3E0BF2EE7
:107E6000A2D0813461F49FD0082FAFD0023811F036
:107E7000013811F484E001C083E08DD089C08234E0
:107E800011F484E103C0853419F485E0A6D080C0E4
:107E9000853579F488D0E82EFF2485D0082F10E0AE
:107EA000102F00270E291F29000F111F8ED06801E7
:107EB0006FC0863521F484E090D080E0DECF843638
:107EC00009F040C070D06FD0082F6DD080E0C81688
:107ED00080E7D80618F4F601B7BEE895C0E0D1E017
:107EE00062D089930C17E1F7F0E0CF16F0E7DF06D8
:107EF00018F0F601B7BEE89568D007B600FCFDCFD4
:107F0000A601A0E0B1E02C9130E011968C91119780
:107F100090E0982F8827822B932B1296FA010C0160
:107F200087BEE89511244E5F5F4FF1E0A038BF0790
:107F300051F7F601A7BEE89507B600FCFDCF97BE46
:107F4000E89526C08437B1F42ED02DD0F82E2BD052
:107F50003CD0F601EF2C8F010F5F1F4F84911BD097
:107F6000EA94F801C1F70894C11CD11CFA94CF0C13
:107F7000D11C0EC0853739F428D08EE10CD085E9AC
:107F80000AD08FE07ACF813511F488E018D01DD067
:107F900080E101D065CF982F8091C00085FFFCCF94
:107FA0009093C60008958091C00087FFFCCF809118
:107FB000C00084FD01C0A8958091C6000895E0E648
:107FC000F0E098E1908380830895EDDF803219F02E
:107FD00088E0F5DFFFCF84E1DECF1F93182FE3DFCA
:107FE0001150E9F7F2DF1F91089580E0E8DFEE27F6
:047FF000FF270994CA
:027FFE00040479
:0400000300007E007B
:00000001FF
