:10000000FEC000002CC100002AC1000028C1000071
:1000100026C1000024C1000022C1000020C1000050
:100020001EC100001CC100001AC1000018C1000060
:1000300016C1000014C1000012C1000010C1000070
:100040000EC100000CC100000AC1000008C1000080
:1000500006C1000004C1000002C1000058C3000036
:10006000FEC00000C7C300009CC30000F8C0000031
:10007000F6C00000F4C00000F2C00000F0C00000B4
:10008000EEC00000ECC00000EAC00000E8C00000C4
:10009000E6C00000E4C00000E2C00000E0C00000D4
:1000A000DEC00000DCC00000DAC00000D8C00000E4
:1000B000D6C00000D4C00000D2C00000D0C00000F4
:1000C000CEC00000CCC00000CAC00000C8C0000004
:1000D000C6C00000C4C00000C2C00000C0C0000014
:1000E000BEC0000005A84CCDB2D44EB93836A90226
:1000F0000C50B9918688083CA6AAAA2ABE00000026
:10010000803F00407A10F35A00A0724E1809001088
:10011000A5D4E80000E87648170000E40B5402007C
:1001200000CA9A3B000000E1F505000080969800A7
:10013000000040420F000000A086010000001027D0
:1001400000000000E8030000000064000000000060
:100150000A00000000000100000000002C76D88892
:10016000DC674F0823DFC1DFAE59E1B1B796E5E3A5
:10017000E453C63AE651997696E8E6C28426EB89BE
:100180008C9B62ED407C6FFCEFBC9C9F40F2BAA55B
:100190006FA5F490055A2AF75C936B6CF9676DC1F3
:1001A0001BFCE0E40D47FEF520E6B500D0ED902EF7
:1001B0000300943577050080841E080000204E0A55
:1001C000000000C80C333333330F986E1283114193
:1001D000EF8D2114893BE65516CFFEE6DB18D1845E
:1001E0004B381BF77C1D901DA4BBE4242032847285
:1001F0005E228100C9F124ECA1E53D27DB09112431
:100200001FBECFEFD1E2DEBFCDBF00E00CBF23E1C8
:10021000A2E6B2E001C01D92A037B207E1F712E0FA
:10022000A0E0B2E0ECEFF2E200E00BBF02C007900A
:100230000D92A236B107D9F710E0CFEFD0E000E081
:1002400006C021970109802FFE010E945F0FCE3F5B
:10025000D10780E00807A9F703D30C947C11D0CE16
:100260003FB7F8948091CB129091CC12A091CD120F
:10027000B091CE1226B5A89B05C02F3F19F001966C
:10028000A11DB11D3FBFBA2FA92F982F8827820F1C
:10029000911DA11DB11DBC01CD0142E0660F771F6C
:1002A000881F991F4A95D1F70895CF92DF92EF9258
:1002B000FF920F931F93CF93DF936C017A018B0111
:1002C000C0E0D0E0CE15DF0581F0D8016D918D0141
:1002D000D601ED91FC910190F081E02DC6011995B8
:1002E000892B11F02196EECF7E01C701DF91CF91CE
:1002F0001F910F91FF90EF90DF90CF900895089598
:1003000080E090E00895FC01538D448D252F30E06E
:10031000842F90E0821B930B541710F0CF96089512
:1003200001970895FC01918D828D981761F0828D5F
:10033000DF01A80FB11D5D968C91928D9F5F9F7319
:10034000928F90E008958FEF9FEF0895FC01918DBB
:10035000828D981731F0828DE80FF11D858D90E028
:1003600008958FEF9FEF0895FC01918D228D892FC5
:1003700090E0805C9F4F821B91098F7399270895AD
:100380008FEC92E1F1DF21E0892B09F420E0822F4C
:100390000895FC01848DDF01A80FB11DA35ABF4F42
:1003A0002C91848D90E001968F739927848FA68974
:1003B000B7892C93A089B1898C91837080648C93C8
:1003C000938D848D981306C00288F389E02D808177
:1003D0008F7D80830895EF92FF920F931F93CF93A9
:1003E000DF93EC0181E0888F9B8D8C8D981305C085
:1003F000E889F989808185FD25C0F62E0B8D10E0F6
:100400000F5F1F4F0F731127E02E8C8DE8120BC06A
:100410000FB607FCFACFE889F989808185FFF5CF0F
:10042000CE01B7DFF2CF8B8DFE01E80FF11DE35A4D
:10043000FF4FF0829FB7F8940B8FEA89FB89808188
:1004400080620AC09FB7F894EE89FF896083E889CB
:10045000F98980818370806480839FBF81E090E010
:10046000DF91CF911F910F91FF90EF900895CF935F
:10047000DF93EC01888D8823C1F0EA89FB898081B4
:1004800085FD05C0A889B9898C9186FD0EC00FB67F
:1004900007FCF5CF808185FFF2CFA889B9898C91BF
:1004A00085FFEDCFCE0175DFE8CFDF91CF910895C5
:1004B00080E090E0892B19F063DF811125C080E096
:1004C00090E0892B41F080E090E0892B21F00E94A0
:1004D000000081111CC080E090E0892B41F080E099
:1004E00090E0892B21F00E940000811113C080E070
:1004F00090E0892BA1F080E090E0892B81F00E94B0
:10050000000081110AC008950E940000D8CF0E9407
:100510000000E1CF0E940000EACF0C940000089593
:10052000FC01808191810C94FF0FCF93DF93EC014C
:1005300088819981009711F00E94FF0F198218821B
:100540001D821C821B821A82DF91CF91089542E0A6
:1005500050E068E172E08FEC92E1A7CECF93DF9399
:10056000FC0144815581608171818FEC92E19DDEB7
:10057000EC01EDDF8C0F9D1FDF91CF9108950E945C
:1005800068110F931F93CF93DF93EC0188819981BA
:10059000009729F02A813B812617370788F48B01C1
:1005A0006F5F7F4F0E948810009761F09983888366
:1005B0001B830A832C813D81232B11F4FC011082C3
:1005C00081E001C080E0DF91CF911F910F910895EC
:1005D000EF92FF920F931F93CF93DF93EC01FB01F8
:1005E00004811581E080F180E114F104C1F001156E
:1005F0001105B9F08C819D81080F191FB801CE013A
:10060000C0DF882361F0288139818C819D81B70109
:10061000820F931F0E9475111D830C8302C0CE01AF
:1006200084DFCE01DF91CF911F910F91FF90EF906A
:100630000895EF92FF920F931F93CF93DF93EC01F6
:100640007B018A01BA019DDF811103C0CE016DDFFC
:1006500007C01D830C83B701888199810E947511A1
:10066000CE01DF91CF911F910F91FF90EF900895F0
:10067000EF92FF920F931F93CF93DF93CDB7DEB727
:10068000A1970FB6F894DEBF0FBECDBF7C01CB01A2
:10069000BA01F7011182108213821282158214822C
:1006A0008E010F5F1F4F22E044E0B2D6009761F049
:1006B000FC0101900020E9F73197AF01481B590B6D
:1006C000BC01C701B6DF02C0C7012FDFA1960FB67C
:1006D000F894DEBF0FBECDBFDF91CF911F910F9178
:1006E000FF90EF900895FC01118210821382128214
:1006F000158214826115710549F0FB0101900020FB
:10070000E9F73197AF01461B570B93CF08951F921E
:100710000F920FB60F9211242F933F938F939F93B5
:10072000AF93BF938091C7129091C812A091C91244
:10073000B091CA123091C61223E0230F2D3720F456
:100740000196A11DB11D05C026E8230F0296A11D2B
:10075000B11D2093C6128093C7129093C812A09324
:10076000C912B093CA128091CB129091CC12A09171
:10077000CD12B091CE120196A11DB11D8093CB1266
:100780009093CC12A093CD12B093CE12BF91AF91A3
:100790009F918F913F912F910F900FBE0F901F90BF
:1007A00018951F920F920FB60F9211240BB60F924D
:1007B0002F933F934F935F936F937F938F939F9369
:1007C000AF93BF93EF93FF938FEC92E1E2DDFF9144
:1007D000EF91BF91AF919F918F917F916F915F91B9
:1007E0004F913F912F910F900BBE0F900FBE0F9026
:1007F0001F9018951F920F920FB60F9211240BB6EF
:100800000F922F938F939F93EF93FF93E091DF12BB
:10081000F091E0128081E091E512F091E61282FD04
:1008200012C090818091E8128F5F8F732091E9123E
:10083000821751F0E091E812F0E0E153FD4E958F00
:100840008093E81201C08081FF91EF919F918F9179
:100850002F910F900BBE0F900FBE0F901F90189509
:10086000CF93DF93CDB7DEB7C055D1090FB6F8945B
:10087000DEBF0FBECDBF789484B5826084BD84B5E1
:10088000816084BD85B5826085BD85B5816085BD8B
:1008900080916E00816080936E0010928100809143
:1008A00081008260809381008091810081608093CB
:1008B0008100809180008160809380008091B100F0
:1008C00084608093B1008091B00081608093B0001B
:1008D000809191008260809391008091910081606D
:1008E000809391008091900081608093900080912E
:1008F000A10082608093A1008091A100816080931B
:10090000A1008091A00081608093A00080912101CE
:100910008260809321018091210181608093210177
:100920008091200181608093200180917A00846011
:1009300080937A0080917A00826080937A0080911F
:100940007A00816080937A0080917A008068809339
:100950007A001092C100E091DF12F091E01282E083
:100960008083E091DB12F091DC121082E091DD12C5
:10097000F091DE128FEC80831092E712E091E31287
:10098000F091E41286E08083E091E112F091E212AE
:10099000808180618083E091E112F091E212808198
:1009A00088608083E091E112F091E212808180689A
:1009B0008083E091E112F091E21280818F7D80834B
:1009C0009E012F5F3F4F19014BDC4B015C0142E65A
:1009D00052E026965FAF4EAF26977A0106EC1AE0FA
:1009E00086EC92E180179107C1F13ADCDC01CB0182
:1009F00088199909AA09BB0982389140A105B10556
:100A000078F32EDC4B015C0180917B00877F809323
:100A10007B00F0E4F0937C0080917A008064809306
:100A20007A0080917A0086FDFCCF609178008091F9
:100A3000790070E0782B072E000C880B990B8ED76D
:100A4000D8016D937D938D939D938D01F701119244
:100A50001192119211927F01C3CF06EC1AE020E0AF
:100A600030E040E85AE3D8016D917D918D919C91E1
:100A7000D4D7F80161937193819391938F0126EC00
:100A800032E12E173F0759F7790106ECC02E0AE034
:100A9000D02E00E010E0B80180E090E05DD720E0CB
:100AA00030E84FEF53E40E94290E2BED3FE049EC74
:100AB00050E4B3D70E94260E9B01AC0160E070E0C9
:100AC00080E89FE30E94C10D21E73DE34AE05FE338
:100AD000A4D74B015C019B01AC01D6016D917D91C6
:100AE0008D919C919AD7F601619371938193919323
:100AF0006F01A5019401D7019E918E917E916E9117
:100B00007D018BD7F70160837183828393830F5FAD
:100B10001F4F0115F1E01F0709F0BDCF80E090E005
:100B200061968FAF619701968A309105C9F7E6EC1F
:100B3000FAE040E050E080E090E020E031E0821711
:100B4000930728F0821B930B36952795F8CF820FD9
:100B5000931F4F5F5F4F4F3F21E05207F1F048175F
:100B60005907C8F4DC01AA0FBB1FAA0FBB1FAA5369
:100B7000B54F0481158126813781CD90DD90ED90B0
:100B8000FC901397C482D582E682F7820D931D9361
:100B90002D933C9313973496D0CF19AE01E010E01B
:100BA00024961CAE1DAE1EAE1FAE2497412C512CB8
:100BB000E0E86E2EEFEB7E2E39AD61964FAD61977A
:100BC000341709F473C1C801880F991F60969FAF4D
:100BD0008EAF6097D80163E0AA0FBB1F6A95E1F75B
:100BE0002896BFAFAEAF2897F801EE0FFF1FEE0FAC
:100BF000FF1F2E96FFAFEEAF2E9722E632E03FAFFB
:100C00002EAF46EC5AE05DAF4CAF1BA21CA21DA25A
:100C10001EA21FA219A650E85DA78FE38FA71CAAEA
:100C20001BAAABA9BCA90A171B0709F412C1EEAD98
:100C3000FFADF8A3EF8F2CAD3DAD3AA329A3BBAF19
:100C4000AAAF4AAD5BAD4115524008F0B5C0A9A1AD
:100C5000BAA12E96EEADFFAD2E97AE0FBF1F2C960C
:100C6000BFAFAEAF2C978D909D90AD90BC902F8D67
:100C700038A12E0F3F1F2A963FAF2EAF2A97D901DA
:100C80008D919D910D90BC91A02D8DAB9EABAFAB86
:100C9000B8AF2FA139A54DA55FA5C501B401BDD63B
:100CA0006B017C012BA13CA14DA15EA16DA97EA988
:100CB0008FA998ADB2D69B01AC01C701B60161D72F
:100CC0006B017C012DA93EA94FA958AD6FA179A553
:100CD0008DA59FA5A2D66DAB7EAB8FAB98AF2BA198
:100CE0003CA14DA15EA1C501B40197D69B01AC0109
:100CF0006DA97EA98FA998AD45D74B015C01A701CD
:100D00009601E9A1FAA1608171818281938139D72D
:100D10002C96AEADBFAD2C976D937D938D939C9328
:100D20001397A5019401EF8DF8A1608171818281F3
:100D3000938127D72A96AEADBFAD2A976D937D9349
:100D40008D939C931397A7019601E9A1FAA1608165
:100D500071818281938116D7A9A1BAA16D937D93E8
:100D60008D939C931397A5019401EF8DF8A1608159
:100D700071818281938106D7AF8DB8A16D937D93E8
:100D80008D939C931397EAADFBAD60962EAD3FAD6E
:100D90006097E20FF31FFBAFEAAF49A15AA1289673
:100DA0008EAD9FAD2897480F591F5AA349A3A80F8E
:100DB000B91FB8A3AF8F45CFA30192016FA179A549
:100DC0008DA59FA52AD66B017C0124962CAD3DAD47
:100DD0004EAD5FAD24976BA17CA18DA19EA11DD6C8
:100DE0009B01AC01C701B601CCD6D62EE72EF82E5A
:100DF000C92EA30192016BA17CA18DA19EA10DD64C
:100E00004B015C0124962CAD3DAD4EAD5FAD2497FA
:100E10006FA179A58DA59FA500D6A5019401B2D695
:100E20006BA37CA38DA39EA3ABA9BCA91196BCAB5D
:100E3000ABABECADFDAD3496FDAFECAF2EAD3FAD41
:100E40002C5F3F4F3FAF2EAFDFA2E9A6FDA6CFA696
:100E5000E8CEA301920160E070E080E89FE391D6C4
:100E600020E030E040E05FE3D8D59CD79B01AC01A7
:100E7000505824962CAF3DAF4EAF5FAF249720E083
:100E800030E040E85FE3C301B2017CD620E030E00F
:100E900040E05FE3C2D586D72B013C0139AD3F5F0F
:100EA00039AF60960EAD1FAD609786CE06EC1AE0A6
:100EB000D8016D917D918D919C912696EEADFFADFF
:100EC0002697C190D190E190F1902696FFAFEEAFBA
:100ED00026979B01AC01A1D54B015C01A7019601AE
:100EE000C701B6019AD59B01AC01C501B4014AD630
:100EF00059D7D8016D937D938D939D938D01E6EC29
:100F0000F2E1EA17FB07A1F636ECE32E3AE0F32E06
:100F100000E010E0712C612C512C412CCC24C394A6
:100F2000D12CD7016D917D918D919D917D018C90FA
:100F300011969C9011971296AC9012971396BC90B4
:100F40009401A50105D587FF18C0F70124813581DB
:100F500046815781B401C5011DD7181674F4940158
:100F6000A501672D762D852D942DF2D487FF05C020
:100F70008601782C692C5A2C4B2CFFEFCF1ADF0AF4
:100F800021E0C216D20669F6C8018150904CAC012E
:100F9000440F551F440F551F58A34F8FFA01EA53B2
:100FA000F54F80809180A280B380FA01E253F54F23
:100FB000C080D180E280F380A7019601C501B40111
:100FC000E0D52B013C01EF8DF8A1E653F54F608190
:100FD0007181828193819B01AC01D4D59B01AC01CD
:100FE000C501B401CED5A7019601CCD59B01AC01BA
:100FF000C301B2012ED620E030E040E05FE30DD522
:101000006B017C01B80180E090E0A6D49B01AC01AB
:10101000C701B601B7D520E030E842E255E4FDD47F
:101020000115114031F020E030E84FEF53E411D6C4
:1010300005C020E030E040E05BE3EFD46B017C01D1
:10104000AB01BC01C10114DB6BE172E0CE01439640
:101050004ADBB101CE014396BBDA80DACE0143967A
:101060005FDAC1015DDA82E69AE09AA389A39EA7BE
:101070008DA701E010E0B801012E000C880B990B40
:101080006DD4A7019601C9D469A77AA78BA79CA79D
:1010900026E636E646E250E475D56FA778AB89AB15
:1010A0009AABE6ECFAE0F8A7EFA31CA21BA2812CF6
:1010B000912C540118A21F8E2F8D38A1B901330F26
:1010C000880B990B4BD420E030E842EA50E4A5D4D9
:1010D0002B013C012FA538A949A95AA939D487FF6A
:1010E00020C026E636E646E250E469A57AA58BA53F
:1010F0009CA547D59B01AC01C301B2014BD6181684
:1011000084F4AFA1B8A52D913D914D915C91C5019D
:10111000B40138D54B015C01EBA1FCA13196FCA3D5
:10112000EBA32BA13CA1B901330F880B990B16D46B
:101130009B01AC01C501B4018CD521EE3AE744E234
:1011400050E46BD420E030E048EC52E482D54F8D7F
:1011500058A14F5F5F4F58A34F8FAFA1B8A514960A
:10116000B8A7AFA34115514009F0A6CFEDA5FEA544
:101170006193719381939193FEA7EDA70F5F1F4F2A
:101180000A31110509F077CF4091620A5091630A44
:101190006091640A7091650AC1016ADA64E372E0E1
:1011A000CE014396A0DAB101CE01439611DAD6D929
:1011B000CE014396B5D9C101B3D992E0E92EF12C05
:1011C000812C912C5401A9A1BAA114964D905D9047
:1011D0006D907C901797A3019201C301B20120D6B4
:1011E000811161C0B301A201CE01439641DA1A8E8A
:1011F000198E1C8E1B8E1E8E1D8E4AE0B101C701FA
:1012000026D1F10101900020E9F73197AF01421991
:101210005309B101CE0149960CDA63E472E0C101D1
:1012200062DABE01675E7F4FC101D2D98C01FC0139
:10123000C480D580F3E0CF0ED11CB601A2D988239B
:1012400009F4B6C0D8012D913C91119714968D9157
:101250009C9115976DE572E0820F931F0E947511A6
:10126000F801D582C482BE016D5E7F4FC801B0D93E
:1012700075D9C10155D9CE01499652D9CE014396AF
:101280004FD9A9A1BAA114966D917D918D919C9190
:1012900017979B01AC01C1D39B01AC01C501B401FF
:1012A00071D44B015C01BFEFEB1AFB0AE9A1FAA173
:1012B0003496FAA3E9A3FAE1EF16F10409F083CF1B
:1012C0006091620A7091630A8091640A9091650A44
:1012D0009B01AC01A2D3A501940154D463D5AB0109
:1012E000BC01C101C5D96DE472E0CE014396FBD9C2
:1012F000B101CE0143966CD931D9CE01439610D9B4
:10130000C1010ED9C501B4014DD52091620A3091B9
:10131000630A4091640A5091650A9BD420E030E052
:1013200048EC52E47AD3AB01BC01C101A1D96AE512
:1013300072E0CE014396D7D9B101CE01439648D988
:101340000DD9CE014396ECD8C101EAD840E050E077
:101350006AE172E08FEC92E10E945501F8D80E9498
:1013600030014B015C0188E8C82E83E1D82EE12CC6
:10137000F12C0E943001DC01CB0188199909AA09DE
:10138000BB09883E9340A105B10598F321E0C21A3C
:10139000D108E108F10838EE830E33E0931EA11C5A
:1013A000B11CC114D104E104F10419F781D80CCBAC
:1013B000C801BBD858CFEFECF2E11382128288EE5D
:1013C00093E0A0E0B0E084839583A683B7838AE0AE
:1013D00092E09183808385EC90E09587848784EC0C
:1013E00090E09787868780EC90E0918B808B81ECF2
:1013F00090E0938B828B82EC90E0958B848B86ECD3
:1014000090E0978B868B118E128E138E148E08951A
:10141000EF920F931F93CF93DF93E80147FD02C034
:1014200034E001C034E1042E000C550B57FF03C01B
:10143000519541955109E32E022F242FAE012AD058
:10144000CE01DF91CF911F910F91EF900895BB27AF
:101450004A3031F4992322F4BDE2909581959F4F53
:1014600001C0BB27FB015527AA27880F991FAA1F78
:10147000A41710F0A41B83955051B9F7A05DAA33AF
:1014800008F0A95DA193009779F7B111B19311927A
:10149000CB014EC28F929F92AF92BF92CF92DF92BA
:1014A000EF92FF920F931F93CF93DF93CDB7DEB7E9
:1014B00029970FB6F894DEBF0FBECDBF6A01122F79
:1014C000B02E2BE3201720F0FF24F394F00E02C07F
:1014D0002CE3F22E0F2D27E0AE014F5F5F4F50D16E
:1014E000BC014981842F8970813031F0E1FC06C054
:1014F000E0FE06C090E205C09DE203C09BE201C091
:1015000090E05E2D507143FF3CC0911102C083E01A
:1015100001C084E0811718F4212F281B01C020E0AE
:1015200051110BC0F601822F30E2882319F031935C
:101530008150FBCFC20ED11C20E0992329F0D601A7
:101540009C93F60131966F01C6010396E2FE0AC034
:101550003EE4D6013C9341E411964C9311971296C8
:101560003C9306C03EE6F601308341E64183328378
:10157000FC01322F40E2332309F442C04193315041
:10158000FACF42FF44C0911102C083E001C084E061
:10159000811718F4212F281B01C020E051110BC026
:1015A000F601822F30E2882319F031938150FBCF6E
:1015B000C20ED11C20E0992329F0D6019C93F6019C
:1015C00031966F01C6010396E2FE0BC039E4D601E5
:1015D0003C933EE411963C93119736E412963C936B
:1015E00007C039E6F60130833EE6318336E63283C2
:1015F000FC01322F40E2332319F041933150FBCFED
:10160000FC01E20FF11D10828EEF9FEFA6C021E0DA
:1016100030E0911102C020E030E0161617061CF4ED
:10162000FB01319602C0E1E0F0E02E0F3F1FBB202E
:1016300021F0EB2DF0E0319602C0E0E0F0E02E0F5B
:101640003F1FE12FF0E02E173F071CF4121B212F44
:1016500001C020E08E2D887159F4F601822F30E20E
:10166000882319F031938150FBCFC20ED11C20E0AA
:10167000992329F0D6019C93F60131966F015111FF
:101680000BC0F601822F90E3882319F091938150CB
:10169000FBCFC20ED11C20E00F2D060F9A81342FF4
:1016A000307144FF03C0913309F40150101624F443
:1016B000093018F008E001C001E0AB0177FF02C07B
:1016C00040E050E0FB01E41BF50BA1E0B0E0AC0F03
:1016D000BD1FEA0FFB1F8EE2A82E4B01801A910856
:1016E0000B2D10E01195019511094F3FBFEF5B07DE
:1016F00021F4D601AC9211966D01641775072CF098
:101700008416950614F4818101C080E3415051098B
:101710003196D60111967D014017510724F0D6016C
:101720008C936701E2CF6417750739F4963320F480
:10173000953319F4311101C081E3F6018083F7017B
:10174000822F90E2882319F091938150FBCFF7010B
:10175000E20FF11D108280E090E029960FB6F89418
:10176000DEBF0FBECDBFDF91CF911F910F91FF90D4
:10177000EF90DF90CF90BF90AF909F908F900895A3
:10178000283008F027E03327DA01990F311D87FD53
:10179000916000966105710539F432602E5F3D93CA
:1017A00030E32A95E1F708959F3F30F080387105C6
:1017B000610509F03C5F3C5F3D93913008F0806823
:1017C000911DDF93CF931F930F93FF92EF92192FE9
:1017D000987F9695E92F96959695E90FFF27E45AFD
:1017E000FE4F99273327EE24FF24A701E701059038
:1017F0000894079428F4360FE71EF81E491F511D60
:10180000660F771F881F991F0694A1F7059007940C
:1018100028F4E70EF81E491F561FC11D770F881FB9
:10182000991F661F0694A1F70590079428F4F80EF7
:10183000491F561FC71FD11D880F991F661F771F8D
:101840000694A1F70590079420F4490F561FC71F6F
:10185000D81F990F661F771F881F0694A9F78491D8
:101860001095177041F0D695C79557954795F79401
:10187000E7941A95C1F7E2E0F1E0689415901591AC
:1018800035916591959105907FE27395E118F10A84
:10189000430B560BC90BD009C0F7E10CF11E431FD7
:1018A000561FC91FD01D7EF4703311F48A95E6CF00
:1018B000E894015030F0080F0AF40027021708F4EA
:1018C000202F2395022F7A3328F079E37D932A95F0
:1018D000E9F710C07D932A9589F606949795679548
:1018E000379517951794E118F10A430B560BC90B5E
:1018F000D00998F023957E9173957A3308F070E3C0
:101900007C932013B8F77E9170617D9330F08395BE
:1019100071E37D9370E32A95E1F71124EF90FF9036
:101920000F911F91CF91DF91992787FD9095089591
:10193000DC01FC01672F71917723E1F7329704C036
:101940007C916D9370836291AE17BF07C8F30895C1
:1019500040D008F481E00895E89409C097FB3EF474
:1019600090958095709561957F4F8F4F9F4F9923EC
:10197000A9F0F92F96E9BB279395F695879577956A
:101980006795B795F111F8CFFAF4BB0F11F460FF2A
:101990001BC06F5F7F4F8F4F9F4F16C0882311F082
:1019A00096E911C0772321F09EE8872F762F05C096
:1019B000662371F096E8862F70E060E02AF09A9531
:1019C000660F771F881FDAF7880F9695879597F926
:1019D0000895990F0008550FAA0BE0E8FEEF1616C0
:1019E0001706E807F907C0F012161306E407F50713
:1019F00098F0621B730B840B950B39F40A2661F087
:101A0000232B242B252B21F408950A2609F4A14029
:101A1000A6958FEF811D811D08950BD078C069D0E8
:101A200028F06ED018F0952309F05AC05FC0112439
:101A3000A2C07ED0A0F3959FD1F3950F50E0551F23
:101A4000629FF001729FBB27F00DB11D639FAA2713
:101A5000F00DB11DAA1F649F6627B00DA11D661F62
:101A6000829F2227B00DA11D621F739FB00DA11D83
:101A7000621F839FA00D611D221F749F3327A00D3D
:101A8000611D231F849F600D211D822F762F6A2FD9
:101A900011249F5750408AF0E1F088234AF0EE0F5E
:101AA000FF1FBB1F661F771F881F91505040A9F76B
:101AB0009E3F510570F014C05EC05F3FECF3983E4E
:101AC000DCF3869577956795B795F795E7959F5FD2
:101AD000C1F7FE2B880F911D9695879597F908956C
:101AE00097F99F6780E870E060E008959FEF80ECD1
:101AF000089500240A941616170618060906089574
:101B000000240A9412161306140605060895092ED9
:101B10000394000C11F4882352F0BB0F40F4BF2B48
:101B200011F460FF04C06F5F7F4F8F4F9F4F089588
:101B300057FD9058440F551F59F05F3F71F047957E
:101B4000880F97FB991F61F09F3F79F08795089563
:101B5000121613061406551FF2CF4695F1DF08C082
:101B6000161617061806991FF1CF8695710561059F
:101B700008940895E894BB2766277727CB0197F947
:101B800008955058BB27AA270ED0C1CFB2DF30F03E
:101B9000B7DF20F031F49F3F11F41EF4A7CF0EF40D
:101BA000E095E7FB9DCFE92FC3DF80F3BA1762070B
:101BB00073078407950718F071F49EF5DBCF0EF4D8
:101BC000E0950B2EBA2FA02D0B01B90190010C014D
:101BD000CA01A0011124FF27591B99F0593F50F465
:101BE000503E68F11A16F040A22F232F342F4427BD
:101BF000585FF3CF469537952795A795F0405395B5
:101C0000C9F77EF41F16BA0B620B730B840BBAF084
:101C10009150A1F0FF0FBB1F661F771F881FC2F7EF
:101C20000EC0BA0F621F731F841F48F48795779503
:101C30006795B795F7959E3F08F0B3CF9395880FBA
:101C400008F09927EE0F9795879508956BD0E39547
:101C500090C00CD05CCF54DF40F04BDF30F021F46B
:101C60005F3F19F03DCF511186CF40CF61DF98F330
:101C70009923C9F35523B1F3951B550BBB27AA270D
:101C800062177307840738F09F5F5F4F220F331F7F
:101C9000441FAA1FA9F333D00E2E3AF0E0E830D04B
:101CA00091505040E695001CCAF729D0FE2F27D04E
:101CB000660F771F881FBB1F261737074807AB071C
:101CC000B0E809F0BB0B802DBF01FF2793585F4F91
:101CD0002AF09E3F510568F003CF4DCF5F3FECF3F4
:101CE000983EDCF3869577956795B795F7959F5F56
:101CF000C9F7880F911D9695879597F90895E1E0AA
:101D0000660F771F881FBB1F621773078407BA0708
:101D100020F0621B730B840BBA0BEE1F88F7E09563
:101D20000895E4CE0DDFE8F3E894E0E0BB279F5789
:101D3000F0F02AED3FE049EC06C0EE0FBB0F661F46
:101D4000771F881F28F0B23A62077307840728F0CC
:101D5000B25A620B730B840BE3959A9572F7803835
:101D600030F49A95BB0F661F771F881FD2F79048F3
:101D70005DC0EF93E0FF06C0A2EA2AED3FE049EC28
:101D80005FEB11DFC4DE0F90039401FC9058E4EE8A
:101D9000F0E05FC01EDE08F48FEF089511F40EF43A
:101DA000A5CE42C0CDDED0F39923D9F3CEF39F5711
:101DB000550B87FF47D00024A0E640EA90018058E9
:101DC0005695979528F4805C660F771F881F20F042
:101DD00026173707480730F4621B730B840B202942
:101DE00031294A2BA69517940794202531254A2797
:101DF00058F7660F771F881F20F026173707480708
:101E000030F4620B730B840B200D311D411DA09526
:101E100081F7B901842F9158880F96958795089579
:101E2000D8DD880B990B08959F3F31F0915020F435
:101E3000879577956795B795880F911D96958795A6
:101E400097F9089591505040660F771F881FD2F779
:101E500008959F938F937F936F93FF93EF939B01CD
:101E6000AC01DBDDEF91FF9105D02F913F914F91B8
:101E70005F91D3CDDF93CF931F930F93FF92EF9298
:101E8000DF927B018C01689405C0DA2EEF01D1DD71
:101E9000FE01E894A5912591359145915591AEF3B8
:101EA000EF0181DEFE019701A801DA9479F7DF9056
:101EB000EF90FF900F911F91CF91DF910895EE0F5A
:101EC000FF1F881F8BBF0790F691E02D19940F9389
:101ED0001F93CF93DF938230910510F482E090E05E
:101EE000E0916E13F0916F1320E030E0A0E0B0E0DD
:101EF000309719F1408151810281138148175907A8
:101F0000C8F08417950769F4109731F012960C9376
:101F1000129713961C9327C000936E1310936F13A0
:101F200022C02115310519F04217530718F49A0100
:101F3000BD01EF01DF01F801DBCF21153105F9F01B
:101F4000281B390B2430310580F48A819B8161156F
:101F5000710521F0FB019383828304C090936F137A
:101F600080936E13FE01329644C0FE01E20FF31F10
:101F70008193919322503109398328833AC020916B
:101F80006C1330916D13232B41F420910202309198
:101F9000030230936D1320936C1320910002309153
:101FA00001022115310541F42DB73EB740910402DD
:101FB00050910502241B350BE0916C13F0916D13C9
:101FC000E217F307A0F42E1B3F0B2817390778F010
:101FD000AC014E5F5F4F2417350748F04E0F5F1F6F
:101FE00050936D1340936C138193919302C0E0E082
:101FF000F0E0CF01DF91CF911F910F910895CF9322
:10200000DF93009709F481C0FC013297138212829A
:10201000A0916E13B0916F13109781F420813181DC
:10202000820F931F20916C1330916D13281739077D
:1020300051F5F0936D13E0936C1367C0ED0120E050
:1020400030E0CE17DF0740F44A815B819E014115E5
:102050005105F1F0EA01F5CFD383C283408151816C
:10206000840F951FC817D90759F488819981840F67
:10207000951F0296918380838A819B8193838283BB
:102080002115310529F4F0936F13E0936E133DC0D1
:10209000E901FB83EA8349915991C40FD51FEC17DD
:1020A000FD0761F480819181840F951F0296E901FB
:1020B00099838883828193819B838A83E0E0F0E027
:1020C00012968D919C911397009719F0FD01DC01F8
:1020D000F7CF8D919C9111979D012E5F3F4F820FFD
:1020E000931F20916C1330916D132817390769F4F1
:1020F000309729F410926F1310926E1302C013825E
:102100001282B0936D13A0936C13DF91CF91089559
:102110006F927F928F929F92AF92BF92CF92DF92F7
:10212000EF92FF920F931F93CF93DF93009781F469
:10213000CB01DF91CF911F910F91FF90EF90DF9036
:10214000CF90BF90AF909F908F907F906F90BFCEB9
:10215000FC01E60FF71F9C0122503109E217F3073B
:1021600008F4A5C0EC01D9010D911C911197061737
:102170001707A8F00530110508F497C0C8010497A7
:102180008617970708F491C002501109061B170B18
:10219000019311936D937C93CF0131DF86C05B0176
:1021A000A01AB10A4C01800E911EA0916E13B0913D
:1021B0006F13612C712CE12CF12C109709F446C09F
:1021C0008D919C911197A815B905B1F56C0142E06C
:1021D000C40ED11CCA14DB0478F14C018A189B0888
:1021E000640142E0C40ED11C1296BC901297139663
:1021F000AC91B5E0CB16D10440F0B282A3839182BA
:102200008082D9016D937C9309C00E5F1F4F800FB0
:10221000911FF90191838083EB2DFA2FE114F104D2
:1022200031F0D7011396FC93EE9312973EC0F093D2
:102230006F13E0936E1339C06816790608F43C01F9
:102240007D0112960D90BC91A02DB7CF80916C139B
:1022500090916D1388169906E1F466167706C8F416
:102260008091000290910102009741F48DB79EB7D2
:102270004091040250910502841B950BE817F90761
:10228000B0F4F0936D13E0936C13F90171836083E4
:102290000CC0CB011CDE7C01009749F0A801BE01F7
:1022A0001BD0CE01ACDEC70104C0CE0102C080E06D
:1022B00090E0DF91CF911F910F91FF90EF90DF9011
:1022C000CF90BF90AF909F908F907F906F90089528
:1022D00081E090E0F89410C0FB01DC0102C00190A5
:1022E0000D9241505040D8F70895FB01DC01019058
:0C22F0000D920020E1F70895F894FFCF54
:1022FC0000007013800000000000EB015501830109
:10230C003702B4019201A6010D0A0046756E646194
:10231C006D656E74616C204672657175656E63795E
:10232C00203A200046756E64616D656E74616C2098
:10233C003A20004861726D6F6E69632000524D53F4
:10234C002076616C7565203A2000544844203A2070
:02235C0000007F
:00000001FF
