:100000000C9467000C948F000C948F000C948F005C
:100010000C948F000C948F000C948F000C948F0024
:100020000C948F000C948F000C948F000C948F0014
:100030000C948F000C948F000C948F000C948F0004
:100040000C9459030C948F000C94C9030C94A303D3
:100050000C948F000C948F000C948F000C948F00E4
:100060000C948F000C948F0005A84CCDB2D44EB9DF
:100070003836A9020C50B9918688083CA6AAAA2A4B
:10008000BE000000803F0000000023002600290081
:1000900000000000250028002B00000000002400C4
:1000A00027002A00040404040404040402020202D7
:1000B000020203030303030301020408102040802B
:1000C00001020408102001020408102083061124F4
:1000D0001FBECFEFD8E0DEBFCDBF11E0A0E0B1E0A2
:1000E000E0E5F3E102C005900D92AC36B107D9F717
:1000F00022E0ACE6B1E001C01D92AE33B207E1F7F9
:1001000010E0C7E6D0E004C02197FE010E949B09E1
:10011000C636D107C9F70E9440040C94A6090C9476
:100120000000CF93DF9390E0FC01E854FF4F24914F
:10013000FC01EC55FF4F84918823C1F090E0880FBB
:10014000991FFC01E656FF4FC591D491FC01E05781
:10015000FF4FA591B4919FB7F8948881E22FE09565
:100160008E2388838C91E823EC939FBFDF91CF91FE
:1001700008958E3008F08E508770806480937C00E4
:1001800080917A00806480937A0080917A0086FD65
:10019000FCCF809178002091790090E0922B089517
:1001A0003FB7F89480919D0190919E01A0919F018D
:1001B000B091A00126B5A89B05C02F3F19F001966C
:1001C000A11DB11D3FBFBA2FA92F982F8827820FDD
:1001D000911DA11DB11DBC01CD0142E0660F771F2D
:1001E000881F991F4A95D1F70895CF92DF92EF9219
:1001F000FF920F931F93CF93DF936C017A018B01D2
:10020000C0E0D0E0CE15DF0581F0D8016D918D0101
:10021000D601ED91FC910190F081E02DC601099588
:10022000892B11F02196EECF7E01C701DF91CF918E
:100230001F910F91FF90EF90DF90CF900895089558
:1002400080E090E00895FC01538D448D252F30E02F
:10025000842F90E0821B930B541710F0CF960895D3
:1002600001970895FC01918D828D981761F0828D20
:10027000DF01A80FB11D5D968C91928D9F5F9F73DA
:10028000928F90E008958FEF9FEF0895FC01918D7C
:10029000828D981731F0828DE80FF11D858D90E0E9
:1002A00008958FEF9FEF0895FC01918D228D892F86
:1002B00090E0805C9F4F821B91098F73992708956E
:1002C00081EA91E00E94540121E0892B09F420E0A9
:1002D000822F0895FC01848DDF01A80FB11DA35A60
:1002E000BF4F2C91848D90E001968F739927848F56
:1002F000A689B7892C93A089B1898C918370806479
:100300008C93938D848D981306C00288F389E02D19
:1003100080818F7D80830895EF92FF920F931F93CA
:10032000CF93DF93EC0181E0888F9B8D8C8D9813A8
:1003300005C0E889F989808185FD26C0F62E0B8DE0
:1003400010E00F5F1F4F0F731127E02E8C8DE81206
:100350000CC00FB607FCFACFE889F989808185FFC8
:10036000F5CFCE010E946A01F1CF8B8DFE01E80F1F
:10037000F11DE35AFF4FF0829FB7F8940B8FEA8983
:10038000FB89808180620AC09FB7F894EE89FF895B
:100390006083E889F98980818370806480839FBF4E
:1003A00081E090E0DF91CF911F910F91FF90EF904E
:1003B0000895CF93DF93EC01888D8823C9F0EA89F3
:1003C000FB89808185FD05C0A889B9898C9186FD4E
:1003D0000FC00FB607FCF5CF808185FFF2CFA8894B
:1003E000B9898C9185FFEDCFCE010E946A01E7CFDC
:1003F000DF91CF91089580E090E0892B29F00E9451
:10040000600181110C9400000895009769F0FC01CF
:1004100001900020E9F73197AF01481B590BBC014F
:1004200081EA91E00C94F50080E090E008950C944E
:1004300005022F923F924F925F926F927F928F921E
:100440009F92AF92BF92CF92DF92EF92FF920F9363
:100450001F93CF93DF93CDB7DEB7A4970FB6F89471
:10046000DEBF0FBECDBF4B015C019B01AC010E9402
:100470002B09882319F082E191E01AC0750164010B
:10048000E894F7F82FEF3FEF4FE75FE7C701B601BA
:100490000E942B09811110C02FEF3FEF4FE75FE75C
:1004A000C701B6010E941D07181634F486E191E0D9
:1004B0000E9405028C01AFC02FEF3FEF4FE75FE4D2
:1004C000C501B4010E94B90818161CF48AE191E034
:1004D000EFCF2FEF3FEF4FE75FECC501B4010E9474
:1004E0001D0787FDF3CF20E030E0A901C501B4016D
:1004F0000E941D0787FF0BC06DE281EA91E00E9418
:100500008C016C01B7FAB094B7F8B09402C0C12C5A
:10051000D12C2AE037ED43EA5BE3C501B4010E9428
:10052000B1064B015C010E9499072B013C010E941E
:10053000C8079B01AC01C501B4010E94B0064B0184
:100540005C0119A27E0181E2E80EF11CEAA2FBA285
:10055000C301B2012AE030E040E050E00E94790996
:1005600029013A01605DF70162937F01232B242B5F
:10057000252B71F7CF010E9405028C016EE281EA02
:1005800091E00E948C01800F911F8C010C0D1D1DAC
:1005900083E0F82E9AE0292E312C412C512CFA942C
:1005A000FF20C9F120E030E040E251E4C501B40190
:1005B0000E94BE084B015C010E9499079B0140E02C
:1005C00050E019A26AA07BA06CA3C32ED42EE52E06
:1005D000CA01B901A20191010E947909605DF3018C
:1005E00062933F01211531054105510589F7CF017E
:1005F0000E940502080F191F6CA17C2D8D2D9E2DC8
:100600000E94C8079B01AC01C501B4010E94B0065D
:100610004B015C01C4CF8EE191E00E940502800F86
:10062000911FA4960FB6F894DEBF0FBECDBFDF9129
:10063000CF911F910F91FF90EF90DF90CF90BF90DF
:10064000AF909F908F907F906F905F904F903F9072
:100650002F9008950F931F9390E0FC01E854FF4FF3
:100660006491FC01EC55FF4FE491F0E0EE0FFF1FA9
:10067000EA57FF4F8591949100E412E42FE030E0B7
:10068000462F0E94FB03611571058105910549F014
:10069000DC01CB010196A11DB11DBC01CD019F70F4
:1006A00003C060E070E0CB011F910F9108950E949C
:1006B000A1091F920F920FB60F9211242F933F930F
:1006C0008F939F93AF93BF938091990190919A01DB
:1006D000A0919B01B0919C013091980123E0230FE0
:1006E0002D3720F40196A11DB11D05C026E8230F6A
:1006F0000296A11DB11D20939801809399019093BA
:100700009A01A0939B01B0939C0180919D019091CF
:100710009E01A0919F01B091A0010196A11DB11D64
:1007200080939D0190939E01A0939F01B093A0019F
:10073000BF91AF919F918F913F912F910F900FBEDD
:100740000F901F9018951F920F920FB60F921124C1
:100750002F933F934F935F936F937F938F939F93C9
:10076000AF93BF93EF93FF9381EA91E00E946A01F8
:10077000FF91EF91BF91AF919F918F917F916F9179
:100780005F914F913F912F910F900FBE0F901F904F
:1007900018951F920F920FB60F9211242F938F93DB
:1007A0009F93EF93FF93E091B101F091B2018081AB
:1007B000E091B701F091B80182FD12C09081809163
:1007C000BA018F5F8F732091BB01821751F0E091C6
:1007D000BA01F0E0EF55FE4F958F8093BA0101C04A
:1007E0008081FF91EF919F918F912F910F900FBE7C
:1007F0000F901F901895CF92DF92EF92FF920F9378
:100800001F93E82FF92F05C0015011092109310963
:1008100061F1908196239417B9F305C00150110935
:100820002109310911F1908196239413F7CFC12C3E
:10083000D12CE12CF12C0AC08FEFC81AD80AE80A93
:10084000F80A0C151D052E053F0579F080818623D9
:10085000841791F36C2D7D2D8E2D9F2D1F910F915F
:10086000FF90EF90DF90CF90089560E070E080E01F
:1008700090E01F910F91FF90EF90DF90CF9008953F
:10088000789484B5826084BD84B5816084BD85B56B
:10089000826085BD85B5816085BD80916E00816077
:1008A00080936E001092810080918100826080931D
:1008B000810080918100816080938100809180001F
:1008C0008160809380008091B10084608093B1004A
:1008D0008091B00081608093B00080917A00846044
:1008E00080937A0080917A00826080937A00809170
:1008F0007A00816080937A0080917A00806880938A
:100900007A001092C100E091B101F091B20182E051
:100910008083E091AD01F091AE011082E091AF01D2
:10092000F091B0018FEC80831092B901E091B50194
:10093000F091B60186E08083E091B301F091B401BB
:10094000808180618083E091B301F091B401808166
:1009500088608083E091B301F091B4018081806868
:100960008083E091B301F091B40180818F7D808319
:100970008AE00E94910089E00E9491000E94D000CC
:10098000609378017093790180937A0190937B0151
:100990008AE00E942A0360939401709395018093EA
:1009A00096019093970189E00E942A036B017C01D4
:1009B0008091940190919501A0919601B091970139
:1009C000BC01CD01660F771F881F991F0E94C807C1
:1009D0004B015C019B01AC0160E074E284E799E4A7
:1009E0000E94270760939001709391018093920178
:1009F00090939301C701B6010E94C807A501940115
:100A00000E94270720E030E044EB53E40E94BE0838
:100A100026E53EE049E450E40E94BE0820E030E0D4
:100A200044E353E40E9427070E9422076B017C01E4
:100A300060938C0170938D0180938E0190938F0150
:100A40008EE00E94B900BC01990F880B990B0E949F
:100A5000CA0720E030E040E85AE30E94BE0820E0E8
:100A600030E040EA50E40E94BE082EEA37E444E257
:100A700053E40E94BE084B015C01609388017093AF
:100A8000890180938A0190938B018FE00E94B900C5
:100A9000BC01990F880B990B0E94CA0720E030E037
:100AA00040E85AE30E94BE0820E030E040EA50E40B
:100AB0000E94BE0822E538EB40EC51E40E94BE08DB
:100AC0009B01AC0160938401709385018093860142
:100AD00090938701C501B4010E94BE0820E030E078
:100AE0004AE754E40E9427079B01AC016093800110
:100AF000709381018093820190938301C701B601B5
:100B00000E94BE086B017C0160937C0170937D01A3
:100B100080937E0190937F010E94D00080907801A5
:100B200090907901A0907A01B0907B0168197909C1
:100B30008A099B090E94C80720E034E244E759E48F
:100B40000E942707A70196010E94BE082091740108
:100B50003091750140917601509177010E94B10664
:100B60006B017C0160937401709375018093760131
:100B7000909377010E94D00060937801709379017F
:100B800080937A0190937B0120E030E041E655E4C8
:100B9000C701B6010E9427079B01AC01609170015B
:100BA0007091710180917201909173010E94B10660
:100BB000609370017093710180937201909373013F
:100BC0002FB7F8948091990190919A01A0919B017F
:100BD000B0919C012FBF40916C0150916D016091CB
:100BE0006E0170916F01841B950BA60BB70B893EAC
:100BF0009340A105B10508F483C081E291E00E9411
:100C00001702609188017091890180918A01909109
:100C10008B010E9419028BE291E00E941702609101
:100C200084017091850180918601909187010E94D5
:100C3000190285E391E00E94170260919001709182
:100C4000910180919201909193010E94190281E497
:100C500091E00E94170260918C0170918D0180914A
:100C60008E0190918F010E94190280E591E00E940F
:100C700017026091800170918101809182019091B1
:100C800083010E94190286E591E00E94170260919B
:100C90007C0170917D0180917E0190917F010E9485
:100CA00019028BE591E00E94170260917401709126
:100CB000750180917601909177010E94190285E675
:100CC00091E00E9417026091700170917101809112
:100CD0007201909173010E9419022FB7F8948091CC
:100CE000990190919A01A0919B01B0919C012FBF15
:100CF00080936C0190936D01A0936E01B0936F018E
:100D00000E94FB0145CEE1EAF1E01382128288EEF7
:100D100093E0A0E0B0E084839583A683B78384E06A
:100D200091E09183808385EC90E09587848784ECC3
:100D300090E09787868780EC90E0918B808B81ECA8
:100D400090E0938B828B82EC90E0958B848B86EC89
:100D500090E0978B868B118E128E138E148E0895D1
:100D60005058BB27AA270E94C8060C946B080E9403
:100D7000320838F00E94390820F039F49F3F19F406
:100D800026F40C942F080EF4E095E7FB0C94290848
:100D9000E92F0E94900858F3BA1762077307840777
:100DA000950720F079F4A6F50C94B2080EF4E095BE
:100DB0000B2EBA2FA02D0B01B90190010C01CA0115
:100DC000A0011124FF27591B99F0593F50F4503EC0
:100DD00068F11A16F040A22F232F342F4427585FB2
:100DE000F3CF469537952795A795F0405395C9F7CA
:100DF0007EF41F16BA0B620B730B840BBAF0915082
:100E0000A1F0FF0FBB1F661F771F881FC2F70EC020
:100E1000BA0F621F731F841F48F4879577956795F3
:100E2000B795F7959E3F08F0B0CF9395880F08F0DF
:100E30009927EE0F9795879508950E94050808F465
:100E400081E008950E944208E3950C947C080E947A
:100E50003B070C946B080E94390858F00E94320836
:100E600040F029F45F3F29F00C94290851110C94AB
:100E7000B3080C942F080E94900868F39923B1F3EB
:100E8000552391F3951B550BBB27AA2762177307B0
:100E9000840738F09F5F5F4F220F331F441FAA1F44
:100EA000A9F335D00E2E3AF0E0E832D09150504000
:100EB000E695001CCAF72BD0FE2F29D0660F771FAE
:100EC000881FBB1F261737074807AB07B0E809F094
:100ED000BB0B802DBF01FF2793585F4F3AF09E3F19
:100EE000510578F00C9429080C94B3085F3FE4F3A3
:100EF000983ED4F3869577956795B795F7959F5F5C
:100F0000C9F7880F911D9695879597F90895E1E0A7
:100F1000660F771F881FBB1F621773078407BA0706
:100F200020F0621B730B840BBA0BEE1F88F7E09561
:100F300008950E94980888F09F5798F0B92F992734
:100F4000B751B0F0E1F0660F771F881F991F1AF0B4
:100F5000BA95C9F714C0B13091F00E94B208B1E05F
:100F600008950C94B208672F782F8827B85F39F05E
:100F7000B93FCCF3869577956795B395D9F73EF44D
:100F800090958095709561957F4F8F4F9F4F0895F5
:100F9000E89409C097FB3EF4909580957095619513
:100FA0007F4F8F4F9F4F9923A9F0F92F96E9BB27C9
:100FB0009395F695879577956795B795F111F8CF45
:100FC000FAF4BB0F11F460FF1BC06F5F7F4F8F4FB0
:100FD0009F4F16C0882311F096E911C0772321F0A6
:100FE0009EE8872F762F05C0662371F096E8862F3E
:100FF00070E060E02AF09A95660F771F881FDAF795
:10100000880F9695879597F90895990F0008550FC1
:10101000AA0BE0E8FEEF16161706E807F907C0F07E
:1010200012161306E407F50798F0621B730B840B86
:10103000950B39F40A2661F0232B242B252B21F460
:1010400008950A2609F4A140A6958FEF811D811D00
:10105000089597F99F6780E870E060E008959FEF3A
:1010600080EC089500240A9416161706180609063F
:10107000089500240A94121613061406050608950E
:101080000C942F080E949808D8F3E894E0E0BB275E
:101090009F57F0F02AED3FE049EC06C0EE0FBB0F82
:1010A000661F771F881F28F0B23A6207730784070C
:1010B00028F0B25A620B730B840BE3959A9572F782
:1010C000803830F49A95BB0F661F771F881FD2F7C0
:1010D00090480C943209092E0394000C11F48823D3
:1010E00052F0BB0F40F4BF2B11F460FF04C06F5FE0
:1010F0007F4F8F4F9F4F0895EF93E0FF07C0A2EA05
:101100002AED3FE049EC5FEB0E94C8060E946B08A5
:101110000F90039401FC9058E8E6F0E00C943E092F
:1011200057FD9058440F551F59F05F3F71F0479598
:10113000880F97FB991F61F09F3F79F0879508957D
:10114000121613061406551FF2CF4695F1DF08C09C
:10115000161617061806991FF1CF869571056105B9
:1011600008940895E894BB2766277727CB0197F961
:1011700008950E94050808F48FEF08950E94D10891
:101180000C946B080E94320838F00E94390820F055
:10119000952311F00C9429080C942F0811240C9419
:1011A000B3080E94900870F3959FC1F3950F50E02B
:1011B000551F629FF001729FBB27F00DB11D639F09
:1011C000AA27F00DB11DAA1F649F6627B00DA11DAF
:1011D000661F829F2227B00DA11D621F739FB00D55
:1011E000A11D621F839FA00D611D221F749F3327C5
:1011F000A00D611D231F849F600D211D822F762F5E
:101200006A2F11249F5750409AF0F1F088234AF03A
:10121000EE0FFF1FBB1F661F771F881F91505040A6
:10122000A9F79E3F510580F00C9429080C94B3084F
:101230005F3FE4F3983ED4F3869577956795B7952D
:10124000F795E7959F5FC1F7FE2B880F911D969547
:10125000879597F908950E940508880B990B0895C2
:101260009F3F31F0915020F4879577956795B7951A
:10127000880F911D9695879597F908959F938F9361
:101280007F936F93FF93EF939B01AC010E94BE0885
:10129000EF91FF910E9452092F913F914F915F91E1
:1012A0000C94BE08DF93CF931F930F93FF92EF929E
:1012B000DF927B018C01689406C0DA2EEF010E9458
:1012C000D108FE01E894A59125913591459155915C
:1012D000A6F3EF010E94C806FE019701A801DA9467
:1012E00069F7DF90EF90FF900F911F91CF91DF9101
:1012F0000895A1E21A2EAA1BBB1BFD010DC0AA1F57
:10130000BB1FEE1FFF1FA217B307E407F50720F06E
:10131000A21BB30BE40BF50B661F771F881F991FE9
:101320001A9469F760957095809590959B01AC0132
:10133000BD01CF010895EE0FFF1F0590F491E02D40
:10134000099481E090E0F8940C94A609F894FFCFFA
:10135000000000008C01F5002301D9015401320185
:1013600046016E616E00696E66006F7666000D0A5A
:1013700000566F6C746167653A2000437572726540
:101380006E743A20004672657175656E63793A2015
:1013900000506F77657220666163746F723A200047
:1013A0006B56413A20006B57203A006B6A6F756CA0
:0C13B0006573203A006B5768203A00007B
:00000001FF
